:10000000FE2F00308A000408840A8207003402347C
:100010000434403480344C34653464343A3420340D
:1000200031342C3432342C34363420346F3475343B
:06003000203437340034D7
:100C5C00831603138E1530308500E730860083121F
:100C6C000313850186010227D3263A2E0028F300B0
:100C7C00F201731C422E432E472E7008F1007108AE
:100C8C00F2070310F00D0310F30C7308031D4F2E25
:100C9C00502E3F2E72080800F700F8015E2E7808DF
:100CAC007707840001208A260130F6007608F807C1
:100CBC007808770784000120003A031D662E672E02
:100CCC00552E0800F5008312031305147508AC2685
:100CDC008312031386110430F400E430F300F30B99
:100CEC00752EF40B752E00008312031305100430BF
:100CFC00F400E430F300F30B812EF40B812E000092
:100D0C008312031305140800F50083120313051452
:100D1C007508AC268312031386150430F400E430F6
:100D2C00F300F30B972EF40B972E00008312031392
:100D3C0005100430F400E430F300F30BA32EF40B95
:100D4C00A32E00008312031305140800F100831274
:100D5C0003130612F2017108F0007208073C013E01
:100D6C00B92E0310F00CFF3E031DB72E7018BF2ECA
:100D7C00C32E831203138615C62E831203138611FA
:100D8C00061606120130F0007008F20708307202E5
:100D9C00031CD12ED22EB12E0800013068268030D3
:100DAC00682605305226C130682683120313A00131
:100DBC00FB2EB830F4000B30F5003227FD007D0817
:100DCC0083120313A1000C302106031DEE2EEF2E0F
:100DDC00F32E2A30FD007D08A10021088A2601305F
:100DEC00FD007D0883120313A0070E302002031CA4
:100DFC00002F012FDF2E080083120313051086111C
:100E0C001A30F700F830F600F60B0A2FF70B0A2F02
:100E1C000000831203130514303068260730F700E6
:100E2C007D30F600F60B182FF70B182F3030682694
:100E3C00C730F600212FF60B202F242F252F38300A
:100E4C006826083068260F3068260130682638304E
:100E5C006826803068260800F801F901FB0183122E
:100E6C0003130508F6007608FA00D32FFC017C0862
:100E7C00013E84000120F6007608831203138504DA
:100E8C00861F492F4A2F6B2F1A30F700F830F600C7
:100E9C00F60B4E2FF70B4E2F000083120313861FF9
:100EAC00582F592F6B2F642F0330F6007608F00063
:100EBC007C083D26013EF7007708FB0083120313E4
:100ECC00861B692F6A2F5A2FC42F061F6E2F6F2F68
:100EDC00902F1A30F700F830F600F60B732FF70B43
:100EEC00732F000083120313061F7D2F7E2F902F6C
:100EFC00892F0330F6007608F0007C083D26023E70
:100F0C00F7007708FB0083120313061B8E2F8F2F1D
:100F1C007F2FC42F861E932F942FB22F1A30F700D9
:100F2C00F830F600F60B982FF70B982F0000831271
:100F3C000313861EA22FA32FB22F861AA62FA72F1C
:100F4C00A32F0330F6007608F0007C083D26033E04
:100F5C00F7007708FB00C42F7C08013E84000120B9
:100F6C00FF3AF600760885050130F6007608FC0796
:100F7C0004307C02031CC32FC42F3D2F1A30F70002
:100F8C00F830F600F60BC82FF70BC82F0000053011
:100F9C00F8070318F90A0030F90775087902031DE0
:100FAC00D92F74087802031CDC2FDD2FE32F740873
:100FBC007504031DE22FE32FE82F7B080319E72F9D
:100FCC00E82F3C2F7B08031DEC2FED2FF12FFF306A
:100FDC00F6007608FB000B307B06031DF62FF72F6F
:100FEC00F82FFB017A088312031385007B08080095
:040FFC0083012E2E11
:02400E00383F39
:00000001FF
